:100000000C94DA010C940B020C940B020C940B026E
:100010000C940B020C940B020C940B020C940B022C
:100020000C940B020C949A110C9472110C944A11BA
:100030000C940B020C9459120C940B020C940B02AE
:100040000C940B020C940B020C940B020C940B02FC
:100050000C940B020C940B020C940B020C940913DD
:100060000C940B020C947A160C94A2150C940B02AF
:100070000C940B020C940B020C940B020C940B02CC
:100080000C940B020C940B020C940B020C940B02BC
:100090000C9447160C9463150C940B020C940B02F1
:1000A0000C940B020C940B020C940B020C940B029C
:1000B0000C940B020C940B020C940B020C940B028C
:1000C0000C940B020C940B020C940B020C9414165F
:1000D0000C9424150C940B020C94E1150C94E5146B
:1000E0000C940B02FC0502060806130698061E0671
:1000F000270630063B064606510661066C06980642
:10010000770682068D06E40FE70FDA0FDE0F1E106A
:10011000EB0FEF0FF50FF90FFD0F031007100B108A
:100120001E101110151019100C94930F0C946C06DE
:100130000C9451060C9498060C94E40F0C946A0FDE
:100140000C94DE0F0C9402060C9415100C940D0206
:100150000C94EB110C9467140C9403100C94E70F9F
:100160000C9430060C94EB0F0C9427060C94BD14E1
:100170000C9411100C94F90F0C941E060C94191089
:100180000C9407100C943C140C94D31C0C940B107E
:100190000C9461060C9446060C943B060C94471490
:1001A0000C94FC050C941E100C94F9120C94AB0FDB
:1001B0000C9471100C9482060C9413060C94FD0F91
:1001C0000C94DA0F0C948D060C94840F0C94CC0FC5
:1001D0000C9483140C94EF0F0C9408060C94B91231
:1001E0000C94F50F0C94FA130C9477060200000996
:1001F0000A02080B0C0D07060304010000000000B2
:1002000000000000000000000000000000000000EE
:1002100000000000000000000011100F00000000AE
:1002200000000000000000000000000000000000CE
:1002300000000000002100240027002A002D0030CB
:1002400000330001010000040107010A010000223F
:1002500000250028002B002E003100340002010090
:1002600000050108010B01000020002300260029E1
:10027000002C002F003200000100000301060109DC
:100280000105050505070508080808020202020A1B
:100290000A08080404040401010101010101010329
:1002A00003030303030303040707070C0C0C0C0CE4
:1002B0000C0C0C0202020206060606060606060BD7
:1002C0000B0B0B0B0B0B0B0102102020080810204E
:1002D00040102040800201020108040201010204D2
:1002E0000810204080804020100804020180040291
:1002F00001804020100804020108040201010204E8
:100300000810204080010204081020408000C20133
:10031000000100110011000C0000E100000A00259E
:100320000025002100009600001900390039003630
:1003300000127A00001F0046004600440080700052
:100340000022004D004D004A00004B0000360075B1
:100350000075007200403800004A009C009C009923
:1003600000802500007200EC00EC00E900C01200E3
:1003700000E900DA01DA01D70160090000D701B60F
:1003800003B603B303B0040000B3036E076E076B3C
:1003900007580200006E07DC0EDC0ED80E2C0100A0
:1003A00000DC0EC11DC11DBE1D45000082000040C5
:1003B0000020D31C11241FBECFEFD1E2DEBFCDBF82
:1003C00000E00CBF12E0A0E0B2E0E6EBF9E400E0F0
:1003D0000BBF02C007900D92A239B107D9F72BE0ED
:1003E000A2E9B2E001C01D92A938B207E1F711E01D
:1003F000CAEDD1E000E006C021970109802FFE017F
:100400000E949B24C93DD10780E00807A9F70E94FC
:10041000AC190C94B41E0C9400002F923F924F9292
:100420005F926F927F928F929F92AF92BF92CF9284
:10043000DF92EF92FF920F931F93CF93DF93CDB78D
:10044000DEB7CF57D1090FB6F894DEBF0FBECDBFD0
:100450001A01DA014C91403C19F5233008F433C7F6
:1004600012966C91129711968C91C158DF4F0FB66E
:10047000F894DEBF0FBECDBFDF91CF911F910F91DA
:10048000FF90EF90DF90CF90BF90AF909F908F90B4
:100490007F906F905F904F903F902F900C94BD1283
:1004A000413C39F4233008F40EC7F10162818181A7
:1004B00070C34A3C09F09EC2233008F404C7D1013E
:1004C0001296EC9012971396FC90139711968C91BC
:1004D00090910002981729F09F3F11F00C94440F5F
:1004E00004C0ECEEF1E0149100C180930002ECEE48
:1004F000F1E0E491EF3F11F40C94440FE23009F481
:100500007EC06CF5EE2309F459C0E13009F0ECC06F
:1005100010928000109281009091810098609093D9
:10052000810090918100916090938100282F30E0AC
:10053000F901EF57FD4FE491F0E0EE0FFF1FE35B91
:10054000FD4F459154915093010540930005F901E9
:10055000E953FD4FE491E093FF0411E0CAC0E43099
:1005600009F49BC00CF472C0E53009F0BDC01092D4
:100570002001109221019091210198609093210116
:1005800090912101916090932101282F30E0F90191
:10059000EF57FD4FE491F0E0EE0FFF1FE35BFD4FDF
:1005A000459154915093F8044093F704F901E953AD
:1005B000FD4FE491E093F60415E09BC014BC15BC1C
:1005C00094B5926094BD95B5916095BD282F30E0AB
:1005D000F901EF57FD4FE491F0E0EE0FFF1FE35BF1
:1005E000FD4F459154915093040540930305F90143
:1005F000E953FD4FE491E093020510E07AC01092B8
:10060000B0001092B1009091B00092609093B00051
:100610009091B10091609093B100282F30E0F901E2
:10062000EF57FD4FE491F0E0EE0FFF1FE35BFD4F4E
:10063000459154915093940240939302F901E953E8
:10064000FD4FE491E093920212E053C010929000AB
:1006500010929100909191009860909391009091E8
:100660009100916090939100282F30E0F901EF57AD
:10067000FD4FE491F0E0EE0FFF1FE35BFD4F45916E
:1006800054915093FE044093FD04F901E953FD4F4A
:10069000E491E093FC0413E02CC01092A0001092AF
:1006A000A1009091A10098609093A1009091A10069
:1006B00091609093A100282F30E0F901EF57FD4F92
:1006C000E491F0E0EE0FFF1FE35BFD4F4591549185
:1006D0005093FB044093FA04F901E953FD4FE49170
:1006E000E093F90414E005C01E2F17FF02C00C941C
:1006F000440F61E00E94BD124701A12CB12C812F53
:100700008D7F09F09EC060E072E18AE790E0A5016C
:1007100094010E947C2429013A01DA01C901019760
:10072000A109B1098F3F9105A105B10509F008F4B0
:1007300045C060E472E48FE090E0A50194010E945E
:100740007C24DA01C9010197A109B1091230E9F449
:100750008F3F9105A105B10509F010F40C943E0FEF
:1007600060E970ED83E090E0A50194010E947C2493
:10077000DA01C9010197A109B1098F3F9105A105CE
:10078000B10509F080F523E059C08F3F9105A1051F
:10079000B105B1F0A8F068E478EE81E090E0A50141
:1007A00094010E947C24DA01C9010197A109B109D1
:1007B000112311F40C94EB0E0C94350F21E001C0C1
:1007C00022E0112371F03AC0D301C2012AE0B595AD
:1007D000A795979587952A95D1F70197A109B10912
:1007E00025E025BD88C068E478EE81E090E0A501B1
:1007F00094010E947C24DA01C9010197A109B10981
:100800008F3F9105A105B10509F010F40C94E80E95
:1008100064E274EF80E090E0A50194010E947C24E2
:10082000DA01C9010197A109B1098F3F9105A1051D
:10083000B10519F010F00C940C0F25E02093B100D5
:1008400046C060E072E18AE790E0A50194010E9451
:100850007C24DA01C9010197A109B1090097E1E0FF
:10086000AE07B10578F068E478EE81E090E0A5018C
:1008700094010E947C24DA01C9010197A109B10900
:1008800023E001C021E0113039F430918100387F3C
:10089000232B2093810042C0133039F43091910012
:1008A000387F232B2093910063C0143039F43091AA
:1008B000A100387F232B2093A10070C0153039F49C
:1008C00030912101387F232B209321017DC01230EC
:1008D000D9F13CF4112379F0113011F00C94440F4C
:1008E0001DC0143009F45AC00CF442C0153009F48C
:1008F0006BC00C94440F87BD8FEF9FEFDC0180939A
:10090000150590931605A0931705B09318058091CF
:100910006E00826080936E000C94440F9093890067
:10092000809388008FEF9FEFDC01809311059093F7
:100930001205A0931305B093140580916F00826097
:1009400080936F000C94440F8093B3008FEF9FEF60
:10095000DC018093950290939602A0939702B09346
:100960009802809170008260809370000C94440F14
:1009700090939900809398008FEF9FEFDC01809314
:100980000D0590930E05A0930F05B093100580916F
:1009900071008260809371000C94440F9093A900C1
:1009A0008093A8008FEF9FEFDC018093090590935F
:1009B0000A05A0930B05B0930C058091720082602C
:1009C000809372000C94440F909329018093280126
:1009D0008FEF9FEFDC018093050590930605A093B0
:1009E0000705B093080580917300826080937300BF
:1009F0000C94440F4B3C09F5223008F464C4D10137
:100A000011968C91C158DF4F0FB6F894DEBF0FBE20
:100A1000CDBFDF91CF911F910F91FF90EF90DF90AD
:100A2000CF90BF90AF909F908F907F906F905F908E
:100A30004F903F902F900C941E12423C81F4223034
:100A400008F441C4F10181810E94C21194EC909399
:100A50000A06D10111969C9190930B0633C0433C3A
:100A6000B9F5223008F42FC4F1018181863308F0F2
:100A7000865390917B00282F2870977F922B90931C
:100A80007B008770806480937C0080917A00806412
:100A900080937A0080917A0086FDFCCF8091780067
:100AA0002091790095EC90930A06D10111969C91C2
:100AB00090930B0690E0922B97FD03969595879562
:100AC0009595879580930C0683E090E00C94CD0E6D
:100AD000483CC1F5223008F4F6C3F1011181143607
:100AE00010F00C94440F1093F1047101F2E0EF0E3A
:100AF000F11CFDE88F2EF4E09F2EADEFCA2EA2E090
:100B0000DA2EB9E9AB2EB2E0BB2E00E077247A945E
:100B1000011711F40C94440F62E0D7018C910E94EC
:100B2000BD12F70181917F01D4018D934D01F60132
:100B300011921192119211926F01D5017D925D0176
:100B40000F5FE6CF493C29F481E0809301020C94C9
:100B5000440F4E3C21F4222309F4B5C3F5CF4031B4
:100B600039F481E180930A0681E090E00C94CD0E87
:100B7000F1011181473C09F0E2C00281E02EF12C25
:100B800061E0812F0E94BD12E114F104E9F460E0FC
:100B9000812FC158DF4F0FB6F894DEBF0FBECDBF17
:100BA000DF91CF911F910F91FF90EF90DF90CF9049
:100BB000BF90AF909F908F907F906F905F904F907D
:100BC0003F902F900C94EE11FFEFEF16F10409F413
:100BD000B4C0E12FF0E0E351FE4FE4918E2F90E09E
:100BE000FC013197E131F10508F0A2C08827EE58E9
:100BF000FF4F8F4F0C949B2484B5806884BD07BD44
:100C00000C94440F84B5806284BD08BD0C94440FDD
:100C100080918000806880938000F0928900E0924B
:100C200088000C94440F8091800080628093800043
:100C3000F0928B00E0928A000C94440F8091B000F7
:100C400080688093B0000093B3000C94440F8091AF
:100C5000B00080628093B0000093B4000C94440F05
:100C600080919000806880939000F0929900E092CB
:100C700098000C94440F80919000806280939000C3
:100C8000F0929B00E0929A000C94440F80919000A7
:100C9000886080939000F0929D00E0929C000C94FC
:100CA000440F8091A00080688093A0008091A000F4
:100CB0008F7B8093A000F092A900E092A8000C9492
:100CC000440F8091A00080628093A000F092AB005E
:100CD000E092AA000C94440F8091A0008860809359
:100CE000A000F092AD00E092AC000C94440F809113
:100CF0002001806880932001F0922901E092280170
:100D00000C94440F80912001806280932001F09226
:100D10002B01E0922A010C94440F809120018860FD
:100D200080932001F0922D01E0922C010C94440F4D
:100D300020E8E216F1040CF42ACF61E029CF4C3C04
:100D400029F5C12ED12C510132E0A30EB11C750141
:100D50008E2D8A19811788F462E0D7018C910E9448
:100D6000BD12F70180810E94C211F701EC0DFD1D3B
:100D70008083FFEFEF1AFF0AEBCF8DEC80930A061A
:100D8000C6010196880F991F0C94CD0E403B09F0C7
:100D900078C1253008F497C2D10113960C911397AE
:100DA0001296FC90602F70E080E090E00E94C820D6
:100DB00020E030E04BE953E40E94542120E034E28B
:100DC00044E75BE40E94542120E034E244E75BE422
:100DD0000E9425200E9497206093290570932A0580
:100DE00080932B0590932C05812F90E0FC01E95313
:100DF000FD4FE491E0932805FC01EF57FD4F8491EE
:100E000090E0880F991FFC01ED5CFD4F2591349116
:100E10003093270520932605FC01E35BFD4F859168
:100E2000949190932505809324058F2D90E0FC01EB
:100E3000E953FD4FE491E0932305FC01EF57FD4F8B
:100E4000849190E0880F991FFC01ED5CFD4F259186
:100E500034913093220520932105FC01E959FD4F7F
:100E6000259134913093200520931F05FC01E35B0D
:100E7000FD4F8591949190931E0580931D05F894E4
:100E8000E0912605F0912705908180912805892B16
:100E9000808378941092190510921A0510921B0500
:100EA00010921C0530E0002309F44DC0F894E09046
:100EB0002405F0902505F701808190912805292FC0
:100EC000209582238083E0912105F09122054081C5
:100ED00020912305822F80954823408360911D0532
:100EE00070911E05DB014C9148234C934081242BCB
:100EF0002083208182238083F7018081982B908337
:100F00007894E0911F05F091200510912305409100
:100F1000290550912A0560912B0570912C0580912F
:100F2000190590911A05A0911B05B0911C0520810F
:100F3000212331F584179507A607B70708F5019611
:100F4000A11DB11DF4CF20E090E080E0B901AC011B
:100F500081EB80930A06D10111968C9111978093B1
:100F60000B0612968C9180930C0670930D062093BD
:100F70000E0650930F064093100687E090E00DC7D1
:100F80008093190590931A05A0931B05B0931C0537
:100F90008091190590911A05A0911B05B0911C052F
:100FA000481759076A077B0708F45AC0F894E0917C
:100FB0001D05F0911E05908180912305982B90834B
:100FC000A0912105B09122059C91982B9C939C9116
:100FD000809598239C93908189238083E0912405B8
:100FE000F091250590818091280580958923808343
:100FF0007894E0911F05F091200510912305409110
:10100000290550912A0560912B0570912C0580913E
:10101000190590911A05A0911B05B0911C0520811E
:10102000212349F084179507A607B70720F40196F6
:10103000A11DB11DF4CF8093190590931A05A093BB
:101040001B05B0931C058091190590911A05A0917C
:101050001B05B0911C0584179507A607B70728F054
:101060003EEF2FEF9FEF8FEF71CF3F5F30131ECF1B
:101070003091190520911A0590911B0580911C054E
:1010800065CF403509F01FC1223008F41CC160E073
:10109000812F0E94BD12812F90E0FC01E953FD4F8A
:1010A0000491FC01EF57FD4FE491F0E0EE0FFF1FBC
:1010B000E959FD4FA591B491FE0131962F01CE0162
:1010C00009969F01F90111929F01E817F907D1F7DD
:1010D000F89411962C911197902E909429211196A5
:1010E0002C93119778943DE762E070E0315049F419
:1010F00019821A821B821C821D821E821F82188600
:10110000D1C0FB013197F1F72C91202379F3F894AA
:1011100012962C911297292112962C9312971196C0
:101120002C911197202B11962C93119778942AE7E4
:1011300037E0F9013197F1F7F89411962C91119756
:10114000292111962C93119722E131E0F901319771
:10115000F1F72C91789442E656E0FA013197F1F7D5
:10116000202309F0C5CF28E030E0882483946EEF77
:1011700070E0EEE0EE2EF12CF2E2CF2ED12C46ED17
:10118000A42EB12C482D4373E1F0F89412964C91A3
:101190001297492112964C93129711964C911197E0
:1011A000402B11964C931197F6013197F1F7129657
:1011B0004C911297402B12964C9312977894A5015C
:1011C0001BC0F89412964C911297492112964C9399
:1011D000129711964C911197402B11964C931197A1
:1011E000FB013197F1F712964C911297402B129612
:1011F0004C9312977894A701FA013197F1F7880C74
:101200002150310909F0BECFF89411962C91119715
:10121000292111962C93119712962C91129729211E
:1012200012962C9312977894920146E0A42EB12C3A
:1012300052E2C52ED12C6EECE62EF12C48E050E0A7
:1012400077247394812CF89411966C911197602BEC
:1012500011966C93119712966C91129769211296C0
:101260006C931297F5013197F1F711966C911197E4
:10127000692111966C931197F6013197F1F76C90F3
:101280007894F7013197F1F7662D602309F08728EC
:10129000770C41505109B9F6F90181929F01E81785
:1012A000F90761F621E520930A0610930B06ACE0DE
:1012B000B6E0F20121912F012D93E817F907C9F744
:1012C0008AE090E06AC5D1011196EC91EA3008F00D
:1012D000DBC5453209F062C1243008F4F2C18CE16B
:1012E00090E00E94C81E8C01D1011396FC901397C8
:1012F00012969C91F8011382128248EE53E060E04E
:1013000070E0448355836683778326E232E031833D
:101310002083148A138A168A158A108E178A128ED1
:10132000118E838D8E7F8D7F838F61E08F2DEE9662
:101330009FAFEE970E94BD1261E08F2D0E94EE11CB
:101340002F2D30E0F901E953FD4FE491D80150967B
:10135000EC93F901EF57FD4FE491F0E0EE0FFF1F22
:10136000E35BFD4F25913491F801328B218B60E0D6
:10137000EE969FADEE97892F0E94BD12D8015B9625
:101380008C91EE969FADEE9781FD07C061E0892FAD
:101390000E94EE11EE969FADEE97F8019487292FEB
:1013A00030E0F901E953FD4FE491D8011D96EC932B
:1013B000F901EF57FD4FE491F0E0EE0FFF1FE959FF
:1013C000FD4F45915491F80157874687128E118E33
:1013D000108E178A168A158A4DE053E060E070E09F
:1013E000FA01C590D590E590F490F0E8CF16F5E2BB
:1013F000DF06E104F10451F58CE0869FA001879F90
:10140000500D1124FA01EF5EFC4F65917491D801E3
:1014100054967C936E935397FA01ED5EFC4F659161
:101420007491F801768B658BFA01EB5EFC4F659148
:10143000749158967C936E935797FA01E95EFC4F2E
:1014400045915491F801528F418F0DC06F5F7F4FCE
:10145000445F5F4F6D30710509F0C2CFD8015496DB
:101460001C921E925397F8014789508D452B09F421
:101470005BC046EF490F443048F08EEC890F843052
:1014800028F082EC890F883008F047C0809168000E
:10149000443020F052EC590F583010F051E001C0A8
:1014A00054E0852B80936800443058F08EEC890F0F
:1014B000843038F082EC890F883040F0A0E0B0E052
:1014C00007C0ABE6B0E0EBE6F0E007C0ADE6B0E0A9
:1014D000883008F0D6C4EDE6F0E05081443018F4CE
:1014E000265031090BC0923379F0933379F094335D
:1014F00079F09E53983070F42E53310981E001C089
:10150000880F2A95EAF707C088E005C084E003C089
:1015100082E001C081E0852B8C93D80159968D9192
:101520009C915A970E946A108091F4049091F5045E
:101530008017910779F0F801838D8E7F838F8FB7A5
:10154000F8941092F3041092F2041093F5040093AF
:10155000F4048FBFD1011196EC90CE2CD12CBCE0BD
:10156000EB9EC0011124FC01EE58F84F7F018285EB
:101570009385009711F00E945D1F8CE08C9DF00117
:101580008D9DF00D1124EE58F84F81E08483138770
:10159000028740E050E06CE0C7014CC0423259F491
:1015A000223008F48EC0FCE0EF9FC001112440E01F
:1015B00050E06EE03DC0403299F4243008F481C020
:1015C000D10112964C91129750E0542F4427139654
:1015D0008C91482BBCE0EB9FC00111246FE028C028
:1015E000413259F4223008F46CC0FCE0EF9FC00196
:1015F000112440E050E06DE01BC0433259F422302A
:1016000008F45FC02CE0E29FC001112440E050E0EC
:1016100066E10EC0443249F5233008F452C0D101CE
:1016200012964C9150E0BCE0EB9FC001112466E0A3
:101630008E58984FC158DF4F0FB6F894DEBF0FBEDB
:10164000CDBFDF91CF911F910F91FF90EF90DF9071
:10165000CF90BF90AF909F908F907F906F905F9052
:101660004F903F902F900C945313463251F52230F7
:1016700040F10E2F10E04CE0E49FF0011124EE58F1
:10168000F84F82859385009791F0C158DF4F2883EA
:10169000CF57D040EE963FAFEE970E945D1FEE967B
:1016A0003FADEE97C158DF4F2881CF57D0408CE037
:1016B000809FF001819FF00D1124EE58F84F1386A2
:1016C0001286223008F468C3D10111960C9111974B
:1016D000023008F061C38C91823F09F0B3C0223020
:1016E00009F45AC313964C91139712965C915B3090
:1016F00008F05AE04B3008F04AE0D1011496EAE0D5
:101700000E9F9001112480E090E0851748F46D91C0
:10171000FC01E20FF31FEF5BFA4F60830196F5CFF8
:10172000D1011E9680E090E0841748F46D91FC0191
:10173000E20FF31FE35DFA4F60830196F5CFE02FD0
:10174000F0E02AE0029F80011124B801635D7A4F26
:101750000F5B1A4F1B821F821E82188688E792E059
:101760009A8389839E01235E3F4FCE01875A9F4F04
:10177000D9011C9214961C921E92139715961C92D6
:101780002A5F3F4F2817390799F7A6965FAFA697AC
:10179000A7964FAFA7974EE64E9FC0014F9F900D63
:1017A0001124DC01A451B84F46E0FE0133960190AC
:1017B0000D924A95E1F7DC01AE50B84F44E1FE01CD
:1017C000399601900D924A95E1F7DC01AA5FB74F77
:1017D0004CE3FE017D9601900D924A95E1F786510A
:1017E000984FFC01E85AFF4FD901CD90DD90ED9064
:1017F000FC90C082D182E282F38234961082118200
:10180000128213823496118300833296718360832F
:101810003296A7962EAD3FADA7973183208332969F
:101820002AE030E031832083329624EF31E03183A7
:10183000208332961082319611821082329681E096
:10184000808322C3803F09F02EC281EFF1018083A3
:10185000602E712C0E94FD124EE6469D9001479D20
:10186000300D1124A9014651584F5A01FA01E45A8A
:10187000FF4FC080D180E280F380AB01BC014C19E6
:101880005D096E097F093A9680819181A0E0B0E000
:1018900084179507A607B70710F080E0FEC110E097
:1018A0006501750154E6E50EF11C25016DE6460E55
:1018B000511C450170E6870E911CD7018C911817B9
:1018C000B8F4D601ED91FC9120813181F201808143
:1018D000811102C040E001C042E0F401A081B18169
:1018E000A10FB11D6C91C501F90119951F5FE5CFDD
:1018F00010E02EE6269DC001279D900D1124FC01CD
:10190000E651F84F6F019F012B593F4FE7963FAFCC
:101910002EAFE79723503109E1963FAF2EAFE19705
:10192000255F3F4FE3963FAF2EAFE3972950310934
:10193000E9963FAF2EAFE99724503109EB963FAFC0
:101940002EAFEB9787E3869D2001879D500C1124D5
:10195000E3962EAD3FADE397ED963FAF2EAFED97FB
:10196000E796EEADFFADE7978081181708F0BDC090
:10197000812E912CD6018D919C91E196EEADFFAD1B
:10198000E197A081B181A80DB91DFC0120813181B1
:1019900041E06C91C501F9011995D6018D919C9199
:1019A000E196EEADFFADE197A081B181A80DB91D23
:1019B000FC012281338140E06C91C501F901199548
:1019C000E396AEADBFADE3978C918823B1F081E093
:1019D00090E0A0E0B0E0012E04C0880F991FAA1F7C
:1019E000BB1F0A94D2F7AC019C0120953095E59677
:1019F0003FAF2EAFE59720E03CC08AE891E0019729
:101A0000F1F7E5CFE22EF12CEB96AEADBFADEB9743
:101A10008D919C91DC01AE0DBF1D0480F581E02D00
:101A20006C91C501C158DF4F2883CF57D040EE9647
:101A30004FAFEE97EF965FAFEF971995C158DF4F15
:101A40002881CF57D040EE964FADEE97EF965FAD21
:101A5000EF97F201EE0DFF1DEE0FFF1FEE50F84F56
:101A6000892B99F480819181842B952B918380839C
:101A70002F5FE996AEADBFADE9978C91D601ED91A0
:101A8000FC91281708F4BECF09C080819181E596AA
:101A90006EAD7FADE59786239723E8CF7601B2E65A
:101AA000EB0EF11CD7018D919C91DC01A80DB91DA5
:101AB00022813381ED96EEADFFADED9740816C91C3
:101AC000C501F9011995D601ED91FC91D7018D91D0
:101AD0009C91DC01A80DB91D0190F081E02D40E042
:101AE0006C91C50119951F5F3BCFFEE60F9F8001EA
:101AF00011240651184F80E090E02FEF3FEFF801DE
:101B0000E80FF91F478D50A1452B21F4148E368F15
:101B1000258F11A206968C33910589F7912C8EE6BC
:101B2000869D6001879DD00C1124C6018651984F77
:101B30009C012C593F4FE1963FAF2EAFE1972F5FAD
:101B40003F4FE3963FAF2EAFE39787E3869D70014B
:101B5000879DF00C1124E196EEADFFADE1978081F9
:101B6000981608F061C0812C2701490C511CC20154
:101B7000880F991FFC01EE50F84F2F01E396AEAD90
:101B8000BFADE3978C91881608F04CC0D2014D91FF
:101B90005C91082C02C0569547950A94E2F7417073
:101BA0005527989EC0011124880D911D20E030E03A
:101BB00060E0F801E20FF31F058CF68DE02DE817C9
:101BC000F90711F4417021C06F5F2A5F3F4F6A30FF
:101BD00081F7452B29F120E030E060E070E0F8016A
:101BE000E20FF31F448D411114C0B6E0B69FF0011F
:101BF000B79FF00D1124EC0DFD1DE651F84F848FB9
:101C0000968F858F10A2178E41E0C5010E942C1976
:101C100007C06F5F7F4F2A5F3F4F6A307105F9F64B
:101C20008394ACCF939497CF80E090E0F12CF801AF
:101C3000E80FF91F21A1222311F0FF24F394069647
:101C40008C339105A1F70E94FD122EE6269DF0012E
:101C5000279DF00D1124EA5BF74F60837183828327
:101C60009383FF2009F419CE20E030E080E0F801F2
:101C7000E20FF31F478D50A14150510942305105E9
:101C800038F4D101A80FB11D958D13969C938F5FE9
:101C90002A5F3F4F2C33310551F7D10112968C93B7
:101CA00090E003967AC0853A11F5F1018281938123
:101CB000F6E00F9F800111240A53174FD8011496A4
:101CC0008C93149715969C9361E00E94BD1261E07D
:101CD000F80185810E94BD1280E4D8018C9380ECCC
:101CE00011968C93119788E812968C93CDC0863A02
:101CF00009F052C07101B2E0EB0EF11C812CE6E05C
:101D00000E9F800111240A53174F5801F3E0AF0EC4
:101D1000B11C680122E0C20ED11CD701ED917D01FA
:101D2000D5018C91813011F090E001C090E8EF373F
:101D300011F4992E08C00E2E000CFF0BEE5CFD4F27
:101D40008081992E980EC8010E949F1364E4C801F7
:101D50000E94B413C8010E948A13C8010E949F13F5
:101D6000682D606CC8010E94B413692DC8010E94DF
:101D7000B413C8010E948A13C8010E949F13F60180
:101D80006081C8010E94B413C8010E948A13839421
:101D9000F4E08F12C2CF78C0C901C158DF4F0FB62F
:101DA000F894DEBF0FBECDBFDF91CF911F910F9191
:101DB000FF90EF90DF90CF90BF90AF909F908F906B
:101DC0007F906F905F904F903F902F900C94911860
:101DD00024E00C941E048F3F9105A105B105C9F0C4
:101DE000C0F062E17AE780E090E0A50194010E94F2
:101DF0007C24DA01C9010197A109B1098F3F91053E
:101E0000A105B10519F010F00C94E40324E00C9442
:101E1000F10323E00C94F10362E17AE780E090E0C3
:101E2000A50194010E947C24DA01C9010197A1094E
:101E3000B1098F3F9105A105B105A1F098F0D3013B
:101E4000C2010AE0B595A795979587950A95D1F7B0
:101E50000197A109B109112311F40C94F00327E0B3
:101E60000C941E0426E00C94E1038F3F9105A1051C
:101E7000B10509F088F624E00C94E10322E00C940B
:101E80001E04E0E0F0E029CBC158DF4F0FB6F89414
:101E9000DEBF0FBECDBFDF91CF911F910F91FF909D
:101EA000EF90DF90CF90BF90AF909F908F907F90FA
:101EB0006F905F904F903F902F900895DC01519666
:101EC000ED91FC915297908150968C918095892349
:101ED000808308952091F4043091F5042817390780
:101EE00081F49091F2048091F304981751F0E091FD
:101EF000F204F0E0E756FA4F8081082E000C990BAF
:101F000008958FEF9FEF08952091F4043091F50428
:101F10002817390739F48FB7F8941092F304109208
:101F2000F2048FBF08952091F4043091F50428172E
:101F3000390771F48091F3042091F20490E0805C01
:101F40009F4F821B910960E470E00E94682408950D
:101F500080E090E008952091F4043091F504281772
:101F60003907B9F49091F2048091F304981789F03D
:101F7000E091F204F0E0E756FA4F80812091F204FC
:101F800030E02F5F3F4F2F7333272093F20490E010
:101F900008958FEF9FEF0895089590E0FC01319729
:101FA000E131F10508F04AC08827ED57FF4F8F4F08
:101FB0000C949B24809180008F7703C080918000D7
:101FC0008F7D80938000089584B58F7702C084B59B
:101FD0008F7D84BD08958091B0008F7703C080917C
:101FE000B0008F7D8093B0000895809190008F772E
:101FF00007C0809190008F7D03C080919000877F03
:102000008093900008958091A0008F7707C0809101
:10201000A0008F7D03C08091A000877F8093A000E7
:102020000895809120018F7707C0809120018F7DD6
:1020300003C080912001877F8093200108953FB7DE
:10204000F89480915A0590915B05A0915C05B09140
:102050005D0526B5A89B05C02F3F19F00196A11D6F
:10206000B11D3FBFBA2FA92F982F8827820F911D2E
:10207000A11DB11DBC01CD0142E0660F771F881F75
:10208000991F4A95D1F70895CF92DF92EF92FF9270
:10209000CF93DF936B017C010E941F10EB01C114F1
:1020A000D104E104F10479F00E941F106C1B7D0B38
:1020B000683E7340A0F381E0C81AD108E108F10836
:1020C000C851DC4FECCFDF91CF91FF90EF90DF90C4
:1020D000CF90089520E001972FEF8F3F9207D9F717
:1020E0000895DF92EF92FF920F931F93CF93DF93A8
:1020F000EC01298D3A8D2115310529F481E090E01C
:102100009B838A835AC0162FDFB6F8948B8D81FD8E
:102110004DC0CE010E945E0F898D9A8D05960E945A
:102120006A108B8D98E0E92EF12C01E081FF1AC036
:10213000802F812321F0CE010E945E0F06C0E98925
:10214000FA8990818889892B8083898D9A8D0E9454
:102150006A10000F81E0E81AF10851F7CE010E94E1
:102160005E0F1CC0802F812339F0E989FA899081A4
:102170008889892B808303C0CE010E945E0F898DE0
:102180009A8D0E946A10000F81E0E81AF10851F759
:10219000E989FA8990818889892B8083DFBE898DBE
:1021A0009A8D0E946A1021E030E007C0E989FA891F
:1021B00090818889892B8083AFCFC901DF91CF912E
:1021C0001F910F91FF90EF90DF900895EF92FF9293
:1021D0000F931F93CF93DF93C091F404D091F50434
:1021E000209709F450C09B8DEE85FF858D8591FF6A
:1021F00004C09081892329F446C09081892309F085
:1022000042C08B899C890E946A1088E0E82EF12CDC
:1022100010E001E08D899E890E946A10EE85FF859D
:1022200090818D85892311F0102B03C0802F80951C
:102230001823000F81E0E81AF10861F78F89988D63
:102240000E946A108B8D81FD10958091F30420917E
:10225000F20490E001968F73992730E0821793077C
:1022600079F0E091F304F0E0E756FA4F10838091A3
:10227000F30490E001968F7399278093F30403C0D1
:102280008B8D81608B8FDF91CF911F910F91FF908C
:10229000EF9008951F920F920FB60F9211240BB674
:1022A0000F922F933F934F935F936F937F938F93EF
:1022B0009F93AF93BF93EF93FF930E94E610FF911C
:1022C000EF91BF91AF919F918F917F916F915F91AE
:1022D0004F913F912F910F900BBE0F900FBE0F901B
:1022E0001F9018951F920F920FB60F9211240BB6E4
:1022F0000F922F933F934F935F936F937F938F939F
:102300009F93AF93BF93EF93FF930E94E610FF91CB
:10231000EF91BF91AF919F918F917F916F915F915D
:102320004F913F912F910F900BBE0F900FBE0F90CA
:102330001F9018951F920F920FB60F9211240BB693
:102340000F922F933F934F935F936F937F938F934E
:102350009F93AF93BF93EF93FF930E94E610FF917B
:10236000EF91BF91AF919F918F917F916F915F910D
:102370004F913F912F910F900BBE0F900FBE0F907A
:102380001F901895CF93DF93282F30E0F901E35188
:10239000FE4F8491F901E953FD4FD491F901EF57B4
:1023A000FD4FC491CC2391F081110E94CD0FEC2FF1
:1023B000F0E0EE0FFF1FE959FD4FA591B491EC91AC
:1023C000ED2381E090E021F480E002C080E090E025
:1023D000DF91CF910895862F0C94C2111F93CF9354
:1023E000DF93282F30E0F901E351FE4F8491F9018A
:1023F000E953FD4FD491F901EF57FD4FC491CC2320
:10240000C9F0162F81110E94CD0FEC2FF0E0EE0FD6
:10241000FF1FE35BFD4FA591B4918FB7F8941111A5
:1024200005C09C91ED2FE095E92302C0EC91ED2BC6
:10243000EC938FBFDF91CF911F910895909100028F
:10244000981334C0ECEEF1E0E4919FEF909300021A
:10245000E230B1F050F4EE2381F0E13039F59091A3
:102460006F009D7F90936F0021C0E430E9F0C8F0C9
:10247000E530E1F41092730019C010926E0016C09E
:10248000909170009D7F9093700091E09093B000C8
:102490009091B100987F94609093B1001092B30036
:1024A00005C01092710002C01092720060E00C949E
:1024B000EE111F920F920FB60F9211240BB60F92CE
:1024C0002F933F934F935F936F937F938F939F933C
:1024D000AF93BF93EF93FF938091950290919602F3
:1024E000A0919702B0919802892B8A2B8B2B51F1E6
:1024F00080919202E0919302F09194029081892759
:1025000080838091950290919602A0919702B0915C
:102510009802181619061A061B06C4F48091950233
:1025200090919602A0919702B09198020197A1090B
:10253000B1098093950290939602A0939702B0936D
:10254000980204C0809100020E941E12FF91EF9138
:10255000BF91AF919F918F917F916F915F914F91BB
:102560003F912F910F900BBE0F900FBE0F901F90B9
:102570001895862F642F0C94EE11CF93DF9390E083
:10258000FC01E953FD4F2491FC01EF57FD4F84916D
:10259000882361F190E0880F991FFC01ED5CFD4FED
:1025A000C591D491FC01E35BFD4FA591B4916111FC
:1025B00009C09FB7F8948881209582238883EC9185
:1025C0002E230BC0623061F49FB7F8943881822FBC
:1025D000809583238883EC912E2B2C939FBF06C07C
:1025E0008FB7F894E8812E2B28838FBFDF91CF918E
:1025F0000895862F642F0C94BD122FB7F894609124
:1026000056057091570580915805909159052FBF37
:1026100008951F920F920FB60F9211242F933F939C
:102620008F939F93AF93BF938091560590915705D9
:10263000A0915805B09159053091550523E0230F1D
:102640002D3720F40196A11DB11D05C026E8230FEA
:102650000296A11DB11D20935505809356059093B8
:102660005705A0935805B093590580915A0590914C
:102670005B05A0915C05B0915D050196A11DB11DA2
:1026800080935A0590935B05A0935C05B0935D051C
:10269000BF91AF919F918F913F912F910F900FBE5E
:1026A0000F901F901895CF93DF93DC0113966C93D6
:1026B000139715965C93159716964C931697FC01F5
:1026C00031969C01295F3F4F80E090E04191840F5B
:1026D000911DE217F307D1F791958195910917960E
:1026E0009C93179718968C9318971A968D919C9196
:1026F0001B97009761F0EC01E881F9810280F3817A
:10270000E02D4AE050E0BD01DF91CF911994DF91B7
:10271000CF910895CF93DF93EC0160E08C810E940C
:10272000EE1160E08D810E94EE1161E08C810E94CB
:10273000EE1161E08D81DF91CF910C94EE11CF937A
:10274000DF93EC0161E08C810E94EE1161E08D81EC
:102750000E94EE1160E08D810E94EE1160E08C819C
:10276000DF91CF910C94EE11FF920F931F93CF93B3
:10277000DF93EC01F62E08E060E08C810E94EE1100
:10278000F0FE02C061E001C060E08D810E94EE11A8
:10279000F59461E08C810E94EE11015069F760E0D0
:1027A0008C810E94EE1161E08D810E94EE1161E04A
:1027B0008C810E94EE1160E08D810E94BD128D819E
:1027C0000E94C211892B69F01F5F183CA1F761E0DC
:1027D0008D810E94BD1260E08D810E94EE1110E09B
:1027E000EACF61E08D81DF91CF911F910F91FF9032
:1027F0000C94BD120F931F93CF93DF93FC01A6851A
:10280000B7858D01005C1F4FE80188819981019691
:102810008F739927AD014E5B5F4FEA0128813981A3
:1028200082179307D1F3E80128813981A20FB31FE2
:102830006C93A685B785A05CBF4F11969C938E9331
:10284000A689B7892C9181E090E0078C02C0880F9F
:10285000991F0A94E2F7822B8C9381E081A304886C
:10286000F589E02D80818064808381E090E0DF91B4
:10287000CF911F910F910895FC0181A1882329F028
:10288000A489B5898C9186FFFBCF11A20895FC0124
:10289000A485B585FD01E05CFF4F20813181329632
:1028A000808191812817390779F080819181A80F63
:1028B000B91F8C91208131812F5F3F4F2F733327B8
:1028C0003183208390E008958FEF9FEF0895DC011E
:1028D0001C96ED91FC911D97DF01A05CBF4F2D91DF
:1028E0003C91119712968D919C9111972817390759
:1028F00039F08D919C91E80FF91F808190E0089547
:102900008FEF9FEF0895FC0124853585F901E05C88
:10291000FF4F80819181329620813181821B930B00
:102920008F739927089589E59BE00E9483148FEAAD
:102930009AE00E94831485E09AE00E9483148BE55C
:1029400099E00C948314FB01E05CFF4F20813181FE
:102950002F5F3F4F2F733327DB01AE5BBF4F4D918E
:102960005C912417350741F040815181DB01A40FB0
:10297000B51F8C93318320830895CF92DF92EF921D
:10298000FF920F931F93CF93DF936C01EB017B01B9
:10299000E40EF51E00E010E0CE15DF0561F0699150
:1029A000D601ED91FC910190F081E02DC6011995C1
:1029B000080F191FF1CFC801DF91CF911F910F911F
:1029C000FF90EF90DF90CF9008951F920F920FB677
:1029D0000F9211240BB60F922F933F938F939F93D7
:1029E000EF93FF93209113093091140980911509F9
:1029F000909116092817390731F4809131018F7DA4
:102A00008093310114C0E0911509F0911609ED523F
:102A1000F74F2081809115099091160901968F73C7
:102A20009927909316098093150920933601FF91F9
:102A3000EF919F918F913F912F910F900BBE0F902F
:102A40000FBE0F901F9018951F920F920FB60F9206
:102A500011240BB60F922F933F938F939F93EF9375
:102A6000FF932091BD093091BE098091BF099091DB
:102A7000C0092817390731F48091D1008F7D8093E8
:102A8000D10014C0E091BF09F091C009E358F64F9E
:102A900020818091BF099091C00901968F73992779
:102AA0009093C0098093BF092093D600FF91EF91C6
:102AB0009F918F913F912F910F900BBE0F900FBE62
:102AC0000F901F9018951F920F920FB60F9211241E
:102AD0000BB60F922F933F938F939F93EF93FF9398
:102AE0002091670A3091680A8091690A90916A0A78
:102AF0002817390731F48091C9008F7D8093C90070
:102B000014C0E091690AF0916A0AE95DF54F2081ED
:102B10008091690A90916A0A01968F739927909320
:102B20006A0A8093690A2093CE00FF91EF919F91EA
:102B30008F913F912F910F900BBE0F900FBE0F9072
:102B40001F9018951F920F920FB60F9211240BB67B
:102B50000F922F933F938F939F93EF93FF93209127
:102B6000110B3091120B8091130B9091140B2817BD
:102B7000390731F48091C1008F7D8093C10014C06A
:102B8000E091130BF091140BEF52F54F20818091DF
:102B9000130B9091140B01968F7399279093140B3C
:102BA0008093130B2093C600FF91EF919F918F911B
:102BB0003F912F910F900BBE0F900FBE0F901F9063
:102BC00018951F920F920FB60F9211240BB60F9209
:102BD0002F933F934F935F936F937F938F939F9325
:102BE000AF93BF93EF93FF938091300182FD07C0B5
:102BF0008091360167E179E00E94A31402C08091C0
:102C00003601FF91EF91BF91AF919F918F917F918D
:102C10006F915F914F913F912F910F900BBE0F904D
:102C20000FBE0F901F9018951F920F920FB60F9224
:102C300011240BB60F922F933F934F935F936F9393
:102C40007F938F939F93AF93BF93EF93FF93809165
:102C5000D00082FD07C08091D60061EC79E00E942F
:102C6000A31402C08091D600FF91EF91BF91AF9164
:102C70009F918F917F916F915F914F913F912F9194
:102C80000F900BBE0F900FBE0F901F9018951F92C4
:102C90000F920FB60F9211240BB60F922F933F9302
:102CA0004F935F936F937F938F939F93AF93BF9354
:102CB000EF93FF938091C80082FD07C08091CE0002
:102CC0006BE67AE00E94A31402C08091CE00FF91CF
:102CD000EF91BF91AF919F918F917F916F915F9194
:102CE0004F913F912F910F900BBE0F900FBE0F9001
:102CF0001F9018951F920F920FB60F9211240BB6CA
:102D00000F922F933F934F935F936F937F938F9384
:102D10009F93AF93BF93EF93FF938091C00082FD89
:102D200007C08091C60065E17BE00E94A31402C049
:102D30008091C600FF91EF91BF91AF919F918F91CC
:102D40007F916F915F914F913F912F910F900BBEAB
:102D50000F900FBE0F901F9018958EBD0DB407FEFB
:102D6000FDCF089561E08091DF050E94EE11789417
:102D70000895F89460E08091DF050C94EE11EF92D5
:102D8000FF920F931F93CF93DF931F921F92CDB7A4
:102D9000DEB78C0169837A830E94B9168AE30E94A8
:102DA000AD166981E62E7A81F72E0E0D1F1DE016F5
:102DB000F10641F080E00E94AD168EB5F7018193D7
:102DC0007F01F5CF0F900F90DF91CF911F910F9161
:102DD000FF90EF900C94B216CF93DF9300D0CDB755
:102DE000DEB74B836A8389830E94B9166A816F714B
:102DF0008981862B0E94AD164B81842F0E94AD16CF
:102E00000F900F900F90DF91CF910C94B2161F93FB
:102E1000CF93DF93182F1076C12FD0E02091D208E6
:102E200030E0C217D307A1F043E06FE180EA0E94CF
:102E3000EC161093D208AE0185E0559547958A951A
:102E4000E1F76FE180E8DF91CF911F910C94EC16D0
:102E5000DF91CF911F9108951F93CF93DF931F921E
:102E6000CDB7DEB7182F69830E9407174981612FFC
:102E700080E40F90DF91CF911F910C94EC161F937B
:102E8000CF93DF931F92CDB7DEB7182F79830E94BF
:102E90002C177981672F81E0810F0F90DF91CF91FF
:102EA0001F910C942C171F93CF93DF931F92CDB7D4
:102EB000DEB7182F0E9407170E94B916812F8F7155
:102EC0000E94AD1680E00E94AD1617FF03C080E09F
:102ED0000E94AD168EB589830E94B21689810F902B
:102EE000DF91CF911F910895AF92BF92DF92EF9241
:102EF000FF920F931F93CF93DF93CDB7DEB7279742
:102F00000FB6F894DEBF0FBECDBFD12C7C0124EFED
:102F1000F21A8C0100521A4F40E86FE180E80E94DB
:102F2000EC1640E86FE180EA0E94EC164AE06CE1A2
:102F300080EA0E94EC16D11022C060E07CE082E0C2
:102F40000E943F17B70186E00E943F1740E060E013
:102F50008AE70E94EC160E94B9168AE70E94AD1615
:102F600090EEA92E95E0B92EA016B10631F0F5012C
:102F700081915F010E94AD16F7CF0E94B21648E022
:102F80006FE180E80E94EC16A12CB12C8CE10E942C
:102F900053178A7041F4FFEFAF1ABF0A28EEA2164A
:102FA00023E0B20699F78CE10E94531781FD05C01A
:102FB00088EEA81683E0B80659F548E06FE180EA8C
:102FC0000E94EC1686E00E945317B82E87E00E94FC
:102FD0005317682F70E0762F66276B0D711D6F5F9A
:102FE0007F4F80E00E943F17BE016F5F7F4F87E0F9
:102FF00090E00E94BF168CE10E94531781FF08C029
:103000008C8185FF05C0E1E1DE1611F0D39484CFF9
:1030100027960FB6F894DEBF0FBECDBFDF91CF91DC
:103020001F910F91FF90EF90DF90BF90AF900895A8
:10303000E0EEF5E0108E118E80E4848B158A868B8D
:1030400020E044E150E06EE088E10C943918FC0186
:1030500096E0A0EEB5E001900D929A95E1F786E03A
:10306000E9EDF5E0A6EEB5E001900D928A95E1F765
:1030700008950F931F93CF93DF9370E060527A4FC0
:10308000213021F48A01075F1F4F0CC0223039F034
:1030900000E010E09801DB011196EA0106C08A0108
:1030A0000250110920E030E0F6CFC230D10578F0AF
:1030B000FD013197E081F0E0FE2FEE279C91E92B96
:1030C0000E0F1F1F211D311D22971296EECFFA0100
:1030D000EE7FE60FF71F40FF0CC0408150E060E03C
:1030E00070E0762F652F542F4427040F151F261FDD
:1030F000371FA9016627772741155105610571051D
:1031000019F022273327F1CF00951095E82FF0E032
:10311000E052FA4F10830183DF91CF911F910F91FD
:1031200008950F931F93CF93C82F109170070091AC
:1031300071078FE79BE00E942718809118029091F9
:103140001902A0911A02B0911B028093FE05909380
:10315000FF05A0930006B093010680917B0B909130
:103160007C0BA0917D0BB0917E0B8093FA05909320
:10317000FB05A093FC05B093FD05E2E1F2E0A0EEB3
:10318000B5E081918D9382E0E831F807D1F788E0CE
:103190008093EC051092ED0549E050E069EA73E098
:1031A0008EEE95E00E94B71E81E18093F7050093B3
:1031B00004061093050686EE8093020689E7809345
:1031C0000306109206061092080610920906CD3DDD
:1031D00008F0CCED0C2F10E01092F0058CE18C0F74
:1031E0008093F1050E94181810920606C85FC093DC
:1031F0000706A801405F5F4F21E06AE188E20E9474
:103200003918C8018A96CF911F910F910C947417A9
:10321000DC0126E0629FA00DB11D112490965C9305
:103220004E935F9721E091962C939197FC01E6597C
:10323000FF4F208131960190F081E02D222331F063
:10324000309749F0611107C0DC0102C0309719F0D6
:103250005C968C91199408956F927F928F929F92B1
:10326000AF92BF92CF92DF92EF92FF921F93CF93D4
:10327000DF931F92CDB7DEB73C01162FFC0186E02D
:10328000689FE00DF11D112411A2878D90A181305E
:103290009105F9F01CF4892B51F04FC08230910553
:1032A000B1F1039709F049C040E050E034C0442335
:1032B00009F443C041E050E0C3010E9408190E9494
:1032C000FD12F301E85AFF4F608371838283938379
:1032D00034C049830E94FD12F301E85AFF4FC080B9
:1032E000D180E280F3804B015C018C189D08AE0810
:1032F000BF08709680819181A0E0B0E04981881577
:103300009905AA05BB0518F442E050E004C041113C
:1033100014C043E050E0612FC3010F90DF91CF91C3
:103320001F91FF90EF90DF90CF90BF90AF909F9054
:103330008F907F906F900C9408190F90DF91CF9130
:103340001F91FF90EF90DF90CF90BF90AF909F9034
:103350008F907F906F900895CF93DF93CDB7DEB7B6
:103360002B970FB6F894DEBF0FBECDBF789484B50F
:10337000826084BD84B5816084BD85B5826085BD71
:1033800085B5816085BD80916E00816080936E00FF
:1033900010928100809181008260809381008091F1
:1033A00081008160809381008091800081608093A2
:1033B00080008091B10084608093B1008091B00062
:1033C00081608093B0008091910082608093910031
:1033D0008091910081608093910080919000816044
:1033E000809390008091A10082608093A1008091E1
:1033F000A10081608093A1008091A00081608093F2
:10340000A00080912101826080932101809121019F
:10341000816080932101809120018160809320014F
:1034200080917A00846080937A0080917A00826033
:1034300080937A0080917A00816080937A008091F5
:103440007A00806880937A001092C10010928B05F8
:1034500087E390E001E010E020E030E00097D1F059
:10346000FC01A3E0F595E795AA95E1F7EF59FA4F2E
:10347000482F47701801290104C0220C331C441C3A
:10348000551C4A95D2F7B201A101A0814A2B408375
:103490000197E4CF86E0ECE0F2E0A9EDB5E0019021
:1034A0000D928A95E1F780E991E090938D058093E4
:1034B0008C050CB406FC25C061E085E30E94BD12BA
:1034C00061E085E30E94EE1161E083E30E94BD129A
:1034D00061E084E30E94BD1260E082E30E94BD12BD
:1034E00061E083E30E94EE1160E083E30E94EE114D
:1034F00060E084E30E94EE1180E58CBD8DB58160B3
:103500008DBD85E38093DF0561E00E94BD120E94BE
:10351000B2164FEF60E08FEF0E94EC1662E070E0B1
:1035200080E090E00E9444100E94B9168DE10E9454
:10353000AD1680E00E94AD161EB50E94B216112392
:1035400099F31092600510925F0560E070E088E0EA
:103550000E943F1760E070E08CE00E943F176FEF21
:103560007BE08AE00E943F1760E07CE084E00E94FC
:103570003F176FEF71E186E00E943F1788E30E94DA
:103580005317682F616088E30E942C1781E08093B5
:103590005E056FE370E388E20E943F1769EF77EF03
:1035A00080E30E943F176DE080EC0E942C1760E0E2
:1035B00081EC0E942C1742E362EC80E80E94EC163A
:1035C00062E17CE086EC0E943F1762E184EC0E949D
:1035D0002C176CED75E08AEC0E943F176091D905BD
:1035E00084EE0E942C176091DA0585EE0E942C175C
:1035F0006091DB0582EE0E942C176091DC0583EE62
:103600000E942C176091DD0580EE0E942C176091BE
:10361000DE0581EE0E942C1760E184ED0E942C17DC
:1036200060E071E086ED0E943F178AEE0E9453171A
:1036300080FDFBCF8FE10E94071740EC6BE180E833
:103640000E94EC1644E06FE180E80E94EC1682E7ED
:103650000E945317863008F08F5F882309F450C00A
:1036600010928B058091080290910902A0910A02A4
:10367000B0910B0280937B0B90937C0BA0937D0BFE
:10368000B0937E0B8091020290910302A0910402FC
:10369000B09105028093870590938805A0938905D2
:1036A000B0938A0527E835E061E875E0EBE7FBE0D9
:1036B00044E04E0F9191D9018D919D018095892B08
:1036C000DB018D93BD014E13F5CF1092860510924C
:1036D00085058091060290910702209193052111A2
:1036E0000FC02DE032E03093950520939405909320
:1036F00097058093960581E08093980580939305C4
:1037000064E670E080E090E00E94441082E18093E3
:103710000A0681E090E00E94911899249394C09049
:103720009105D0909205FFEC8F2E80919005882313
:1037300089F060918E0570918F056115710519F4FE
:103740006FEF7BE002C0615071098CE00E943F176F
:103750001092900589E30E9453178823C1F160916C
:103760008E0570918F0580E00E943F17BE016F5F4C
:103770007F4F86E090E00E94BF1689819A819093E6
:103780008F0580938E050B811C8180918C05909113
:103790008D052D8127FF0DC0019704501109801759
:1037A000910708F48C0160EE75E0C8010E94BF1615
:1037B00002C000E010E0F801E052FA4F108290924F
:1037C000900540E46EE180E80E94EC1602C000E043
:1037D00010E08091F705813009F04EC0909102060B
:1037E000983009F049C0C114D10421F08AEF95E066
:1037F000F601199586EE95E00E9427188091FA054A
:103800009091FB05A091FC05B091FD058093FE050C
:103810009093FF05A0930006B093010680917B0B67
:1038200090917C0BA0917D0BB0917E0B8093FA055B
:103830009093FB05A093FC05B093FD050E9418181A
:103840001092020680910406883F28F090910506A8
:103850009F5F90930506885F80930406C8010E94CD
:1038600074177DEF672E72E0772EEDE8AE2EE4E060
:10387000BE2E09E912E05AC090919305992389F36D
:10388000813179F704E915E0A12CB12C80919305E1
:1038900090E0A816B9062CF7D80112964C91129711
:1038A00013969C9113972091040630E0E92EF12C99
:1038B0002E153F05E9F480910506841319C014966E
:1038C0002C9114972223A1F02091070630E0A90142
:1038D000485051092091060630E0322F2227240F4C
:1038E000351FED91FC914AE056E06AEF75E01995BD
:1038F000BFEFAB1ABB0A0B5F1F4FC8CFF50180812A
:103900000E94C2118B870E94FD12D8012C912B843A
:10391000221216C020910102211112C0E4E06E0EA5
:10392000711C0F5F1F4FFFEFAF1ABF0A8091F104A8
:1039300090E098012959324028173907F8F22EC033
:10394000D3012D913D914D915C9113971B012C0159
:10395000221A330A440A550A2F82388649865A8623
:103960006D937D938D939C9313972B84F801208204
:1039700080920A06D5018C9180930B0620920C064A
:10398000BF81B0930D0630920E0640920F06509202
:10399000100687E090E00E949118C0CF10920102BB
:1039A0000E949314C2CECF92DF92EF92FF921F93A8
:1039B000CF93DF93CDB7DEB72A970FB6F894DEBF6B
:1039C0000FBECDBF10925C0B10925B0B88EEC82E21
:1039D00083E0D82EE12CF12CC0925D0BD0925E0BCF
:1039E000E0925F0BF092600B40E552E050935A0B6F
:1039F0004093590B85E19BE09093660B8093650B98
:103A000081ED9AE09093680B8093670B85EC90E0D2
:103A100090936A0B8093690B84EC90E090936C0B0D
:103A200080936B0B80EC90E090936E0B80936D0B0A
:103A300081EC90E09093700B80936F0B82EC90E0A0
:103A40009093720B8093710B86EC90E09093740BC3
:103A50008093730B34E03093750B23E02093760B47
:103A600097E09093770B85E08093780B11E01093AB
:103A7000790B1092B20A1092B10AC092B30AD09296
:103A8000B40AE092B50AF092B60A5093B00A409395
:103A9000AF0A6BE67AE07093BC0A6093BB0A67E2F8
:103AA0007AE07093BE0A6093BD0A6DEC70E070938B
:103AB000C00A6093BF0A6CEC70E07093C20A609316
:103AC000C10A68EC70E07093C40A6093C30A69ECA1
:103AD00070E07093C60A6093C50A6AEC70E0709358
:103AE000C80A6093C70A6EEC70E07093CA0A6093CC
:103AF000C90A3093CB0A2093CC0A9093CD0A8093C5
:103B0000CE0A1093CF0A1092080A1092070AC092A8
:103B1000090AD0920A0AE0920B0AF0920C0A50931A
:103B2000060A4093050A61EC79E07093120A6093EB
:103B3000110A6DE779E07093140A6093130A65ED3A
:103B400070E07093160A6093150A64ED70E070934C
:103B5000180A6093170A60ED70E070931A0A609378
:103B6000190A61ED70E070931C0A60931B0A62ED04
:103B700070E070931E0A60931D0A66ED70E070930A
:103B8000200A60931F0A3093210A2093220A9093FF
:103B9000230A8093240A1093250A10925E0910923A
:103BA0005D09C0925F09D0926009E0926109F092CC
:103BB000620950935C0940935B0947E159E05093D7
:103BC00068094093670943ED58E050936A094093B0
:103BD000690945E351E050936C0940936B0944E354
:103BE00051E050936E0940936D0940E351E05093CA
:103BF000700940936F0941E351E05093720940937B
:103C0000710942E351E0509374094093730946E30C
:103C100051E05093760940937509309377092093CA
:103C200078099093790980937A0910937B098BE046
:103C30008093110280930B021F921F931F921F9378
:103C40008EE792E09F938F939E012F5F3F4F790104
:103C50003F932F930E94F51FC7010E94961E9093D9
:103C60007107809370071F921F931F921F9388E81C
:103C700092E09F938F93FF92EF920E94F51FC701EE
:103C80000E94961E909307028093060282E797E0B7
:103C90000FB6F894DEBF0FBECDBF2AE0E2E4F2E03B
:103CA000DC01322F01900D923A95E1F7FC01138669
:103CB00012860C96F7E08A3E9F0781F780E090E03D
:103CC000EAEEF7E028E732E0DC01A651B84F1296A1
:103CD0001C9212971682158217961C9231832083AC
:103CE000DF015C96AF01485A5F4F1C9214961C92FC
:103CF0001E92139715961C9215971696A417B50742
:103D0000A1F7E259FF4F82599F4F8C3D9105E1F693
:103D10002A960FB6F894DEBF0FBECDBFDF91CF91CC
:103D20001F91FF90EF90DF90CF900895FC018827BE
:103D30009927E89421912032E9F3293010F02E30B0
:103D4000C8F32B3241F02D3239F4689404C00E943C
:103D5000C01E820F911D219120532A30C0F31EF402
:103D6000909581959F4F0895F8940C94D924FB0168
:103D7000DC0102C005900D9241505040D8F70895E3
:103D80007AE0979F902D879F802D910D11240895A3
:103D9000CF93DF938230910510F482E090E0E091C0
:103DA000870BF091880B20E030E0C0E0D0E0309746
:103DB00011F14081518148175907C0F04817590740
:103DC00061F482819381209719F09B838A832BC0B1
:103DD0009093880B8093870B26C02115310519F02D
:103DE0004217530718F49A01BE01DF01EF01028068
:103DF000F381E02DDCCF2115310509F1281B390BAA
:103E00002430310590F412968D919C911397611591
:103E1000710521F0FB019383828304C09093880B8A
:103E20008093870BFD01329644C0FD01E20FF31F22
:103E300081939193225031092D933C933AC0209164
:103E4000850B3091860B232B41F420911E0230917B
:103E50001F023093860B2093850B20911C0230911A
:103E60001D022115310541F42DB73EB740912002C6
:103E700050912102241B350BE091850BF091860BAC
:103E8000E217F307A0F42E1B3F0B2817390778F031
:103E9000AC014E5F5F4F2417350748F04E0F5F1F90
:103EA0005093860B4093850B8193919302C0E0E081
:103EB000F0E0CF01DF91CF9108950F931F93CF933F
:103EC000DF93009709F48CC0FC01329713821282B1
:103ED0000091870B1091880B0115110581F4208149
:103EE0003181820F931F2091850B3091860B28170B
:103EF000390779F5F093860BE093850B71C0D801F3
:103F000040E050E0AE17BF0750F412962D913C915F
:103F10001397AD012115310509F1D901F3CF9D01A9
:103F2000DA013383228360817181860F971F8217A4
:103F3000930769F4EC0128813981260F371F2E5F22
:103F40003F4F318320838A819B8193838283452BDA
:103F500029F4F093880BE093870B42C01396FC93EF
:103F6000EE931297ED01499159919E01240F351F4F
:103F7000E217F30771F480819181840F951F0296F7
:103F800011969C938E938281938113969C938E932A
:103F90001297E0E0F0E0D80112968D919C91139772
:103FA000009719F0F8018C01F6CF8D919C91980142
:103FB0002E5F3F4F820F931F2091850B3091860B10
:103FC0002817390769F4309729F41092880B10925A
:103FD000870B02C0138212821093860B0093850B0D
:103FE000DF91CF911F910F9108950F931F93CF935E
:103FF000DF93CDB7DEB72E970FB6F894DEBF0FBEB6
:10400000CDBF0E891F8986E08C831A8309838FEFC9
:104010009FE79E838D83AE01465E5F4F688D798DED
:10402000CE0101960E94C1212F813885F801E20F4F
:10403000F31F10822E960FB6F894DEBF0FBECDBFD1
:10404000DF91CF911F910F9108950E9439200C9418
:104050001A210E94132158F00E940C2140F029F4EB
:104060005F3F29F00C94032151110C944E210C94C4
:1040700009210E942B2168F39923B1F3552391F371
:10408000951B550BBB27AA2762177307840738F0C7
:104090009F5F5F4F220F331F441FAA1FA9F335D024
:1040A0000E2E3AF0E0E832D091505040E695001CD8
:1040B000CAF72BD0FE2F29D0660F771F881FBB1F92
:1040C000261737074807AB07B0E809F0BB0B802D70
:1040D000BF01FF2793585F4F3AF09E3F510578F09C
:1040E0000C9403210C944E215F3FE4F3983ED4F3EB
:1040F000869577956795B795F7959F5FC9F7880F70
:10410000911D9695879597F90895E1E0660F771FC1
:10411000881FBB1F621773078407BA0720F0621B52
:10412000730B840BBA0BEE1F88F7E09508950E947D
:10413000332188F09F5798F0B92F9927B751B0F0E5
:10414000E1F0660F771F881F991F1AF0BA95C9F71B
:1041500014C0B13091F00E944D21B1E008950C944B
:104160004D21672F782F8827B85F39F0B93FCCF3FE
:10417000869577956795B395D9F73EF49095809598
:10418000709561957F4F8F4F9F4F0895E89409C0B8
:1041900097FB3EF490958095709561957F4F8F4F7A
:1041A0009F4F9923A9F0F92F96E9BB279395F69590
:1041B000879577956795B795F111F8CFFAF4BB0F0E
:1041C00011F460FF1BC06F5F7F4F8F4F9F4F16C072
:1041D000882311F096E911C0772321F09EE8872FFC
:1041E000762F05C0662371F096E8862F70E060E0B8
:1041F0002AF09A95660F771F881FDAF7880F969531
:10420000879597F9089597F99F6780E870E060E0D7
:1042100008959FEF80EC089500240A94161617065F
:1042200018060906089500240A94121613061406A7
:1042300005060895092E0394000C11F4882352F00A
:10424000BB0F40F4BF2B11F460FF04C06F5F7F4FC2
:104250008F4F9F4F089557FD9058440F551F59F0A9
:104260005F3F71F04795880F97FB991F61F09F3F63
:1042700079F087950895121613061406551FF2CF8C
:104280004695F1DF08C0161617061806991FF1CFDC
:1042900086957105610508940895E894BB27662703
:1042A0007727CB0197F908950E9467210C941A2172
:1042B0000E940C2138F00E94132120F0952311F068
:1042C0000C9403210C94092111240C944E210E947A
:1042D0002B2170F3959FC1F3950F50E0551F629FFE
:1042E000F001729FBB27F00DB11D639FAA27F00D4F
:1042F000B11DAA1F649F6627B00DA11D661F829F76
:104300002227B00DA11D621F739FB00DA11D621F5A
:10431000839FA00D611D221F749F3327A00D611D77
:10432000231F849F600D211D822F762F6A2F112459
:104330009F5750409AF0F1F088234AF0EE0FFF1F8C
:10434000BB1F661F771F881F91505040A9F79E3FE3
:10435000510580F00C9403210C944E215F3FE4F34F
:10436000983ED4F3869577956795B795F795E79539
:104370009F5FC1F7FE2B880F911D9695879597F942
:1043800008952F923F924F925F926F927F928F92F9
:104390009F92AF92BF92CF92DF92EF92FF920F93D4
:1043A0001F93CF93DF93CDB7DEB72C970FB6F8945A
:1043B000DEBF0FBECDBF7C016B018A01FC011782FD
:1043C0001682838181FFBDC1CE0101964C01F701A8
:1043D0009381F60193FD859193FF81916F0188236D
:1043E00009F4ABC1853239F493FD859193FF819136
:1043F0006F01853229F4B70190E00E94D223E7CF04
:10440000512C312C20E02032A0F48B3269F030F4B2
:10441000803259F0833269F420612CC08D3239F03A
:10442000803339F4216026C02260246023C02860D4
:1044300021C027FD27C030ED380F3A3078F426FF31
:1044400006C0FAE05F9E300D1124532E13C08AE09F
:10445000389E300D1124332E20620CC08E3221F490
:1044600026FD6BC1206406C08C3611F4206802C0A2
:10447000883641F4F60193FD859193FF81916F0198
:104480008111C1CF982F9F7D9554933028F40C5FF4
:104490001F4FFFE3F9830DC0833631F0833771F08E
:1044A000833509F05BC022C0F801808189830E5FEB
:1044B0001F4F44244394512C540115C03801F2E09D
:1044C0006F0E711CF801A080B18026FF03C0652D1E
:1044D00070E002C06FEF7FEFC5012C870E94C723F9
:1044E0002C0183012C852F77222E17C03801F2E092
:1044F0006F0E711CF801A080B18026FF03C0652DEE
:1045000070E002C06FEF7FEFC5012C870E94BC23D3
:104510002C012C852068222E830123FC1BC0832DB7
:1045200090E048165906B0F4B70180E290E00E948E
:10453000D2233A94F4CFF50127FC859127FE81918F
:104540005F01B70190E00E94D22331103A94F1E06C
:104550004F1A51084114510471F7E5C0843611F027
:10456000893639F5F80127FF07C0608171818281A2
:1045700093810C5F1F4F08C060817181072E000C72
:10458000880B990B0E5F1F4F2F76722E97FF09C075
:1045900090958095709561957F4F8F4F9F4F2068C4
:1045A000722E2AE030E0A4010E940A24A82EA81846
:1045B00044C0853729F42F7EB22E2AE030E025C092
:1045C000F22FF97FBF2E8F36C1F018F4883579F0BD
:1045D000B4C0803719F0883721F0AFC02F2F206189
:1045E000B22EB4FE0DC08B2D8460B82E09C024FFFE
:1045F0000AC09F2F9660B92E06C028E030E005C0A3
:1046000020E130E002C020E132E0F801B7FE07C04F
:1046100060817181828193810C5F1F4F06C0608130
:10462000718180E090E00E5F1F4FA4010E940A2478
:10463000A82EA818FB2DFF777F2E76FE0BC0372DF6
:104640003E7FA51450F474FE0AC072FC08C0372DDA
:104650003E7E05C0BA2C372D03C0BA2C01C0B52C44
:1046600034FF0DC0FE01EA0DF11D8081803311F48D
:10467000397E09C032FF06C0B394B39404C0832FBF
:10468000867809F0B39433FD13C030FF06C05A2C6E
:10469000B31418F4530C5B18B32CB31468F4B701BB
:1046A00080E290E03C870E94D223B3943C85F5CF12
:1046B000B31410F43B1801C0312C34FF12C0B70101
:1046C00080E390E03C870E94D2233C8532FF17C0F4
:1046D00031FD03C088E790E002C088E590E0B701B3
:1046E0000CC0832F867859F031FF02C08BE201C0E5
:1046F00080E237FD8DE2B70190E00E94D223A5143D
:1047000038F4B70180E390E00E94D2235A94F7CFA7
:10471000AA94F401EA0DF11D8081B70190E00E9496
:10472000D223A110F5CF332009F451CEB70180E296
:1047300090E00E94D2233A94F6CFF70186819781C8
:1047400002C08FEF9FEF2C960FB6F894DEBF0FBE1E
:10475000CDBFDF91CF911F910F91FF90EF90DF9030
:10476000CF90BF90AF909F908F907F906F905F9011
:104770004F903F902F900895FC010590615070403C
:104780000110D8F7809590958E0F9F1F0895FC011A
:104790006150704001900110D8F7809590958E0F70
:1047A0009F1F08950F931F93CF93DF93FB012381E6
:1047B00021FD03C08FEF9FEF28C022FF16C0468166
:1047C0005781248135814217530744F4A081B18178
:1047D0009D012F5F3F4F318320838C93268137814A
:1047E0002F5F3F4F3783268310C0EB01092F182F0F
:1047F0000084F185E02D1995892BE1F68E819F814A
:1048000001969F838E83812F902FDF91CF911F91EF
:104810000F910895FA01AA27283051F1203181F132
:10482000E8946F936E7F6E5F7F4F8F4F9F4FAF4FB8
:10483000B1E03ED0B4E03CD0670F781F891F9A1FCB
:10484000A11D680F791F8A1F911DA11D6A0F711D7F
:10485000811D911DA11D20D009F468943F912AE08B
:10486000269F11243019305D3193DEF6CF01089573
:10487000462F4770405D4193B3E00FD0C9F7F6CFA4
:10488000462F4F70405D4A3318F0495D31FD40526C
:10489000419302D0A9F7EACFB4E0A6959795879502
:1048A00077956795BA95C9F70097610571050895E1
:1048B0009B01AC010A2E069457954795379527958D
:1048C000BA95C9F7620F731F841F951FA01D089525
:1048D00097FB072E16F4009407D077FD09D00E94AD
:1048E000A32407FC05D03EF4909581959F4F089531
:1048F000709561957F4F0895052E97FB1EF40094E7
:104900000E94932457FD07D00E94B72407FC03D0D0
:104910004EF40C94932450954095309521953F4F3B
:104920004F4F5F4F089590958095709561957F4F9B
:104930008F4F9F4F0895EE0FFF1F881F8BBF07906B
:10494000F691E02D1994AA1BBB1B51E107C0AA1FC9
:10495000BB1FA617B70710F0A61BB70B881F991F20
:104960005A95A9F780959095BC01CD010895A1E2D3
:104970001A2EAA1BBB1BFD010DC0AA1FBB1FEE1FD9
:10498000FF1FA217B307E407F50720F0A21BB30B24
:10499000E40BF50B661F771F881F991F1A9469F7A0
:1049A00060957095809590959B01AC01BD01CF01FC
:0649B0000895F894FFCF0A
:1049B600FF01FFFFFF00ECC2C0A8640AAA000000C6
:1049C6000100AA0000000000C0A864010000890BD5
:1049D6002000000000007110BD14930FAB0F6A0F8A
:1049E600840F3F065B4F666D7D077F6F777C395E70
:1049F60079717EFF06000100000000EF0000000054
:104A0600FA13BD148314471467143C140000000005
:104A1600CC0FBD14CC0FCC0FCC0FCC0F0000000078
:104A2600CC0FBD1400000000F912B912EB113225AB
:104A3600303264253032640031253032642530321C
:024A460064000A
:00000001FF
